:020000000C28CA
:100008007E1480318B1A0B1D0A289A217E10090054
:100018000D28F901FA01FB01203084000030850029
:10002800103082217E102000F02879140130F00071
:1000380070082000A0070A302006031D0800A00150
:100048000130F0007008A1070A302106031D0800DE
:10005800A10179150130F0007008A2070A302206C4
:10006800031D0800A201F9150130F0007008A3076C
:1000780005302306031D0800A30179160130F0009E
:100088007008A4070A302406031D0800A401F91605
:100098000130F0007008A5073C302506031D080054
:1000A800A50179170130F0007008A6073C30260634
:1000B800031D0800A601F9170130F0007008A70712
:1000C80018302706031D0800A7017A14080001301C
:1000D8002000AA070030AB3D280829040319782816
:1000E8000130A8020030A93B2908B1002808B00057
:1000F800003031021A3003193002031CA4281930C9
:10010800B0020030B13B3230F1000030F20031086B
:10011800F4003008F300142172082000B1007108BF
:10012800B0009830F1000330F2003108F4003008D4
:10013800F300BC2072082000B1007108B000A628A6
:10014800B001B10131082B02031DAC2830082A0286
:10015800031C0800AA01AB01031022008C1E031423
:10016800031CB92822008C16080022008C120800F3
:10017800F701F801710872040319EB28F601F60A71
:10018800F21BD0280130F135F20D890BC728013058
:10019800F5007508F607C4280130F735F80D890B06
:1001A800D12872087402031DDB2871087302031C2E
:1001B800E2287108F3027208F43B77140130F23632
:1001C800F10C890BE3280130F602031DD0287808CA
:1001D800F2007708F100080088218B170B17AA2175
:1001E800640079187910F91CFB28F9106B20791D27
:1001F800FF287911A421F919F911791E0F2979120B
:10020800031022008C1C0314031C0D2922008C14DB
:100218000F2922008C10F91EF528F9126400F52820
:10022800F501F601711C1C297308F5077408F63DE1
:100238000130F335F40D890B1D290130F236F10C2C
:10024800890B222971087204031D16297608F20009
:100258007508F100080021001508C039113895000B
:100268003830200095003830F3007308FB000B117C
:100278008B16AC30F1000130F2008E210800F91124
:10028800791079117A10F9137913F910F912791292
:100298002000A201A101A701A601A501A001A401B6
:1002A800A301080022008C011D3021008C001530AC
:1002B80023008C0024008C012100951722009D0149
:1002C800080020002E082F04031908002F088A00B0
:1002D8002E080A0081310800703021009900980129
:1002E8002200960121001A1B0800762901302100FE
:1002F8009D0020309E009B019C0108006400800145
:100308000131890B8329003456217021A0212F2126
:100318007A21080072082000AF007108AE000800BA
:1003280021001C08F2001B08F10008000B117B08D3
:10033800200095006521080016302100970008006C
:10034800A7219421080021009D14080043210800DA
:040358001920080060
:020000040001F9
:08000000FF3FFF3FFF3FFF3F00
:04000E00FCFFFFFFF5
:00000001FF
